:020000040800F2
:100000008853002045010008092800080B28000833
:100010000F28000813280008172800080000000017
:100020000000000000000000000000001B28000885
:100030001D280008000000001F28000821280008D3
:100040005F0100085F0100085F0100085F01000810
:100050005F0100085F0100085F0100085F01000800
:100060005F0100085F010008232800085F01000805
:100070005F0100085F0100085F0100085F010008E0
:100080005F0100085F0100085F0100085F010008D0
:100090005F0100085F0100085F0100085F010008C0
:1000A0005F0100085F0100085F0100085F010008B0
:1000B0005F0100085F0100085F0100085F010008A0
:1000C0005F0100085F0100085F0100085F01000890
:1000D0005F0100085F010008412800089D28000812
:1000E0005F0100085F0100085F0100085F01000870
:1000F0005F0100085F0100085F0100085F01000860
:100100005F0100085F0100085F0100085F0100084F
:100110005F0100085F0100085F0100085F0100083F
:100120005F0100085F0100085F0100085F0100082F
:10013000DFF80CD009F086FD00480047872700084B
:10014000885300200648804706480047FEE7FEE740
:10015000FEE7FEE7FEE7FEE7FEE7FEE7FEE7FEE777
:1001600047020008310100080CB500200190009002
:100170006C48006840F480306A49086000BF6948F4
:10018000006800F4003000900198401C0190009835
:1001900018B90198B0F5A06FF1D16248006800F479
:1001A000003010B10120009001E000200090009884
:1001B000012843D15C48006840F010005A490860AB
:1001C0000846006820F0030008600846006840F018
:1001D0000200086053484068524948600846406839
:1001E00048600846406840F48060486008464068BF
:1001F00020F47C1048600846406840F4E8104860ED
:100200000846006840F08070086000BF45480068FC
:1002100000F000700028F9D04248406820F0030048
:10022000404948600846406840F00200486000BF0E
:100230003C48406800F00C000828F9D10CBD10B50E
:10024000FFF792FF10BD10B53648006840F001007E
:1002500034490860084640683449084031494860DC
:1002600008460068324908402E4908600846006880
:1002700020F4802008600846406820F4FE004860B2
:100280004FF41F008860FFF7DAFF4FF00060294944
:10029000086010BD10B5002100200022214B5B68D2
:1002A00003F00C0121B1042906D0082928D107E068
:1002B000214B224C236027E01F4B204C236023E07E
:1002C000184B5B6803F47010164B5B6803F48032C4
:1002D000022303EB904022B9194B4343174C236090
:1002E0000DE0104B5B6803F4003323B1144B434320
:1002F000124C236003E0104B4343104C236003E097
:100300000D4B0E4C236000BF00BF064B5B68C3F370
:1003100003130C4CE15C094B1B68CB40074C23607A
:1003200010BD000000100240002002400000FFF855
:10033000FFFFF6FE08ED00E000127A00000000204A
:1003400000093D000400002031490143314A116099
:10035000704770B5002100230F22C47804B32D4CE0
:10036000246804F4E064C4F5E064210AC1F10403E4
:10037000CA40447804FA03F1847814402143090107
:10038000254C0678A155047804F01F050124AC40E3
:1003900005786D11AD0005F1E025C5F8004109E0D3
:1003A000047804F01F050124AC401C4D067876113A
:1003B00045F8264070BD1A4A0A400243154B1B1FE0
:1003C0001A60704739B1134A121D12680243114B6B
:1003D0001B1D1A6006E00F4A121D126882430D4B66
:1003E0001B1D1A607047042808D14FF0E0210969ED
:1003F00041F004014FF0E022116107E04FF0E021ED
:10040000096921F004014FF0E022116170470000FA
:100410000000FA050CED00E000E400E080E100E0FF
:1004200080FFFF1F002044490860091D0860091D66
:100430000860091D086041483F4914310860704751
:1004400000213D498279002A3AD00A4612680368A1
:100450009A430B461A600A1D126803689A430B1DE3
:100460001A60027911440A6803681A430A60324A22
:100470000832126803689A432F4B08331A601A1D1A
:10048000126803689A432C4B0C331A604279102A85
:100490000ED11A1F126803681A43274B08331A60DB
:1004A0001A1D126803681A43234B0C331A600DE0BF
:1004B0002149427911440A6803681A430A6005E039
:1004C000027911440A6803689A430A607047002160
:1004D000016001710C214171002181717047164941
:1004E000103109680143144A103211607047014607
:1004F0000020114A143212680A400AB1012000E0BB
:10050000002070470C4914310860704701460020F4
:100510000022094B1B6803EA0102074B14331B68D6
:100520000B4013B10AB1012000E0002070470249DE
:10053000143108607047000000040140FFFF0F0005
:1005400030B943F2DB028100A1F1C0410A6005E04D
:1005500043F2D2028100A1F1C0410A606FF0704203
:10056000411C8900A1F1C0410A608100A1F1C04194
:10057000C1F80421704710280AD118214FF02042F9
:100580001166402151664FF0FC319166D16610E052
:100590001821F74A116040214FF02042C2F8841020
:1005A0004FF0FC31F24A083211604FF02042C2F89D
:1005B0008C1070471820EE49203108600020090691
:1005C000C1F8A4004FF0FC30E94928310860091D4A
:1005D0000860091D08607047D0E901121143C26824
:1005E0001143026911434269114382691143C2698F
:1005F0001143026A1143426A1143826A1143C26A7B
:100600001143026B114302689200A2F1C0421160D3
:10061000816808290BD101688900A1F1C0410968EE
:1006200041F0400201688900A1F1C0410A60416BBC
:100630000968426B526841EA0211426B926841EAD2
:100640000221426B928941EA0241426B128A41EADD
:100650000251426B127D41EA0261426B9269114381
:100660000268521C9200A2F1C0421160C16AB1F549
:10067000804F1BD1816B0968826B526841EA02117D
:10068000826B926841EA0221826B128A41EA02512E
:10069000826B127D41EA0261826B926911430268AA
:1006A0009200A2F1C042C2F8041107E06FF070425C
:1006B00001688900A1F1C041C1F80421704730B53B
:1006C000002100220023446844F0080485682C437C
:1006D000C5682C4305692C43456944EA452485696E
:1006E00044EA4531C4692468C5696D6844EA052453
:1006F000C5692D8944EA0544C5692D7B44EA056234
:10070000046A2468056A6D6844EA0524056A2D892F
:1007100044EA0544056A2D7B44EA05630468102C0D
:1007200005D14FF020442166A266E36608E0904CB4
:1007300021604FF02044C4F888208D4C0C34236095
:1007400030BD016841F01001426841EA42218268EF
:1007500041EA4231864A20321160C1680968C268A4
:10076000526841EA0221C268128941EA0241C26824
:10077000127B41EA02617E4A2832116001690968F0
:100780000269526841EA02210269128941EA024182
:100790000269127B41EA0261754A2C32116041699B
:1007A00009684269526841EA02214269128941EAB4
:1007B00002414269127B41EA02614FF02042C2F8D5
:1007C000B01070470021016002214160002181606A
:1007D000C160016141618161C16101624FF4805179
:1007E0004162490081620021C16201630F21426BB5
:1007F0001160426B5160FF21426B91600F21426B8F
:10080000D160426B1161426B51610021426B916179
:100810000F21826B1160826B5160FF21826B9160AE
:100820000F21826BD160826B1161826B516100215B
:10083000826B9161704710210160002141608160ED
:10084000C160016141618161FC21C2691160C269BD
:100850005160C2699160C269D160026A1160026A26
:100860005160026A9160026AD160704700210160A4
:1008700041608160FC21C2681160C2685160C26839
:100880009160C268D16002691160026951600269B9
:1008900091600269D16042691160426951604269A8
:1008A00091604269D160704751B18200A2F1C042AB
:1008B000126842F001038200A2F1C042136009E015
:1008C0008200A2F1C04212682A4B1A408300A3F1B1
:1008D000C0431A60704799B1102808D14FF02042E8
:1008E000126E42F004024FF020431A661DE0204AC7
:1008F000126842F004024FF02043C3F8802014E055
:10090000102809D14FF02042126E1A4BDB1E1A40FC
:100910004FF020431A6608E0154A1268154BDB1E9B
:100920001A404FF02043C3F88020704748B1104967
:100930002031096841F004014FF02042C2F8A010B4
:1009400009E00B49203109680A4AD21E11404FF0D4
:100950002042C2F8A0107047B9B110280CD14FF056
:100960002042126E42F040024FF020431A661FE010
:10097000800000A0FEFF0F00724A126842F04002A1
:100980004FF02043C3F8802012E0102808D14FF028
:100990002042126E6C4B1A404FF020431A6607E05B
:1009A000684A1268684B1A404FF02043C3F8802011
:1009B000704701460020102903D14FF02042506FAC
:1009C00002E0604A14321068704710B5F2B1102886
:1009D00007D14FF020435B6E0B434FF0204463661A
:1009E00032E0B0F5807F08D1564B1B1D1B680B43CE
:1009F0004FF02044C4F8843026E0524B24331B6867
:100A00000B434FF02044C4F8A4301DE0102807D158
:100A10004FF020435B6E8B434FF02044636613E03E
:100A2000B0F5807F08D1474B1B1D1B688B434FF0EF
:100A30002044C4F8843007E0424B24331B688B43C6
:100A40004FF02044C4F8A43010BD10B50246002079
:100A50000023102A03D14FF02044636E09E0B2F561
:100A6000807F03D1374C241D236802E0354C2434A9
:100A7000236803EA01040CB1012000E0002010BD4E
:100A8000102807D14FF02042526E8A434FF0204386
:100A90005A6613E0B0F5807F08D12A4A121D126809
:100AA0008A434FF02043C3F8842007E0254A2432CC
:100AB00012688A434FF02043C3F8A420704770B5F2
:100AC00002460020002300240025102A03D14FF005
:100AD0002046736E09E0B2F5807F03D1194E361DB2
:100AE000336802E0174E2436336803EA010403EA50
:100AF000D10514B10DB1012000E0002070BD102817
:100B000008D14FF02042526E22EAD1024FF020432A
:100B10005A6615E0B0F5807F09D10A4A121D1268A5
:100B200022EAD1024FF02043C3F8842008E0054AAE
:100B30002432126822EAD1024FF02043C3F8A420E5
:100B400070470000800000A0BFFF0F0010B50446F2
:100B5000CC48844208D10121042000F02DFB002163
:100B6000042000F029FB46E0C748844208D1012157
:100B7000082000F021FB0021082000F01DFB3AE0D6
:100B8000C248844208D10121102000F015FB002149
:100B9000102000F011FB2EE0BD48844208D1012155
:100BA000202000F009FB0021202000F005FB22E0BE
:100BB000B848844208D10121402000F0FDFA00210C
:100BC000402000F0F9FA16E0B348844208D1012130
:100BD000802000F0F1FA0021802000F0EDFA0AE018
:100BE000AE48844207D10121801500F0E5FA0021CA
:100BF000A01500F0E1FA10BD10B50121084600F083
:100C0000DBFA0021012000F0D7FA10BD2DE9F041F8
:100C1000024600250026002000230024002791F82A
:100C200003C00CF00F0591F803C00CF0100CBCF1E0
:100C3000000F03D091F802C04CEA050591F800C0FE
:100C4000BCF1000F31D0146800202BE04FF0010CF4
:100C50000CFA00F3B1F800C00CEA03069E4220D162
:100C600083004FF00F0C0CFA03F7BC4305FA03FCAA
:100C70004CEA040491F803C0BCF1280F06D14FF0F0
:100C8000010C0CFA00FCC2F814C00AE091F803C091
:100C9000BCF1480F05D14FF0010C0CFA00FCC2F872
:100CA00010C0401C0828D1D31460B1F800C0BCF1BA
:100CB000FF0F34DD546800202EE000F1080C4FF0E7
:100CC000010808FA0CF3B1F800C00CEA03069E42D2
:100CD00021D183004FF00F0C0CFA03F7BC4305FA47
:100CE00003FC4CEA040491F803C0BCF1280F05D1C1
:100CF00000F1080C08FA0CF8C2F8148091F803C04F
:100D0000BCF1480F07D100F1080C4FF0010808FAB8
:100D10000CF8C2F81080401C0828CED35460BDE8FF
:100D2000F0814FF6FF710180022181700421C170B2
:100D300070470246002093680B400BB1012000E091
:100D4000002070470146886880B270470246002044
:100D5000D3680B400BB1012000E000207047014632
:100D6000C86880B2704701617047416170470AB13D
:100D7000016100E041617047C16070474FF480320B
:100D80000A43826181618261826982697047024699
:100D90000020434B18684FF68073184040EA021059
:100DA00008433F4B186070473E49C8617047F0B533
:100DB0000A46002300240021002500F00046B6F179
:100DC000004F02D1364EF16901E0354E7168C0F333
:100DD000034583B200F44016B6F5401F08D121F058
:100DE00070612F4E766826F070662D4F7E6012E09F
:100DF00000F48016B6F5801F06D1032606FA05F426
:100E0000A14341F0706106E0460D360103FA06F693
:100E1000B14341F0706122B1460D360103FA06F686
:100E2000314300F00046B6F1004F02D11C4EF16193
:100E300001E01B4E7160F0BD30B500228B071C0F26
:100E40000F2303FA04F2164B08338C1053F82430A6
:100E50009343134C08348D1044F8253023468C10EE
:100E600053F824308C07240F00FA04F423430C4C6D
:100E700008348D1044F8253030BD0A49DC31086053
:100E80007047000000080140000C014000100140C4
:100E90000014014000180140001C014000200140E6
:100EA0000000014000002042DF48006840F00100DF
:100EB000DD49086008464068DC490840DA49486076
:100EC00008460068DA490840D749086008460068C3
:100ED00020F4802008600846406820F4FE00486046
:100EE0004FF41F0088607047CF49096821F48031B2
:100EF000CD4A11601146096821F480211160B0F5D6
:100F0000803F03D0B0F5802F0ED106E0C6490968B6
:100F100041F48031C44A116007E0C349096841F4D3
:100F2000A021C14A116000E000BF00BF704710B5AA
:100F300001460022002300204A11012A02D1BA4CA6
:100F4000236806E0022A02D1B74C236A01E0B64CBE
:100F5000636A01F01F02012494401C400CB101207F
:100F600000E0002010BD38B50020009000240025CE
:100F700000BF3120FFF7DBFF05460098401C0090C2
:100F80000098B0F5A06F01D0002DF2D03120FFF70E
:100F9000CEFF08B1012400E00024204638BD014600
:100FA0000020A14A106820F0F80040EAC10010605B
:100FB0007047A04908607047024600209A4B586865
:100FC00020F47C1042EA01031843974B58607047A5
:100FD00098490866704701460020934A506820F0FF
:100FE00003000843506070478F48406800F00C00D1
:100FF0007047014600208C4A506820F0F0000843FA
:101000005060704701460020874A506820F4E06035
:1010100008435060704701460020834A506820F41E
:10102000605040EAC1005060704729B17E4A527A50
:1010300002437D4B5A7204E07B4A527A82437A4BD8
:101040005A7270477B49D8310860704701460020CA
:10105000754A506820F440400843506070470021B2
:10106000714A20321170704A82F82010012802D093
:1010700004280AD104E001216B4A2032117005E0F6
:101080000521694A2032117000E000BF00BF70479F
:101090006949086070476449096A0143624A1162FC
:1010A0007047654944390860704730B50021002217
:1010B000002400235C4D6D6805F00C0121B104296A
:1010C00005D0082923D105E05C4D056022E05B4D89
:1010D00005601FE0544D6D6805F47012524D6D6847
:1010E00005F48034022505EB92421CB9544D55435A
:1010F00005600BE04C4D6D6805F400351DB1504D99
:101100005543056002E04D4D5543056002E04B4DEF
:10111000056000BF00BF444D6D6805F0F00109098E
:10112000484D6B5C0568DD4045603F4D6D6805F4DA
:10113000E061090A434D6B5C4568DD4085603A4DCE
:101140006D6805F46051C90A3E4D6B5C4568DD4031
:10115000C560354D6D6805F44041890B3A4D6B5CB7
:10116000C568B5FBF3F5056130BD29B12E4A52695A
:1011700002432D4B5A6104E02B4A526982432A4BA9
:101180005A61704729B1284A92690243264B9A61F5
:1011900004E0254A92698243234B9A61704729B142
:1011A000214AD2690243204BDA6104E01E4AD26927
:1011B00082431D4BDA61704729B11B4AD268024352
:1011C000194BDA6004E0184AD2688243164BDA60A1
:1011D000704729B1144A12690243134B1A6104E0A3
:1011E000114A12698243104B1A6170471249403903
:1011F000086070470F49C86470470B49C871704751
:101200000948406A40F080700749486270470146CB
:101210000020054A92680A400AB1012000E000203F
:101220007047014988727047001002400000FFF8C3
:10123000FFFFF6FE000042428004424200127A00A4
:1012400000093D00140000202400002010B50446D1
:10125000BE48844208D101218014FFF7ADFF002170
:10126000A014FFF7A9FF16E0B948844208D1012174
:101270000014FFF7AEFF00212014FFF7AAFF0AE0D9
:10128000B448844207D10121C013FFF7A2FF002117
:10129000E013FFF79EFF10BD10B50022028802F494
:1012A00041520B884C8823438C882343CC882343AA
:1012B0000C8923434C8923438C892343CC892343C2
:1012C0001A430280838B4FF2FF74234083830B8A7F
:1012D000038210BD2DE9F04F85B005460C464FF056
:1012E000000902274FF000084FF0010B0026B2461C
:1012F000A88B4FF240010840A88302202884B5F84B
:101300001C90A068022801D100BF38E0A08810B965
:101310004FF0010B01E04FF0020B8D48854200D1E8
:1013200000E000BF6846FFF7C0FEDDF800A0E088DF
:10133000B0F5007F0AD14FEA1A2000EB8000400090
:10134000A168B0FBF1F0401D86B20BE04FEA4B10F4
:10135000BAFBF0F000EB80004000A168B0FBF1F0B8
:10136000401D86B20A20B6FBF0F606F00108A6EB97
:101370000800C0F34F074FF6FF7000EA0828022F5D
:1013800001DBFF2F02DD02274FF00008E08840EA72
:10139000080038432884A088A1890843618808434D
:1013A0002188084340F4006040EA0909A5F81C9030
:1013B00005B0BDE8F08F0021018041808180C180AF
:1013C000018141818181C181072101827047002112
:1013D000018041808180C180022181600021818162
:1013E000704721B1028842F04002028004E0028886
:1013F0004FF6BF731A400280704721B1828B42F4CE
:101400008062828304E0828B4FF6FF331A4082832E
:10141000704730B5002400230C110125A540ABB264
:101420001AB185881D43858002E085889D438580AB
:1014300030BD1AB183880B43838002E083888B43DD
:1014400083807047818170470146888970474FF6D5
:10145000FF62914204D0028842F48072028004E06C
:1014600002884FF6FF631A400280704721B18288DC
:1014700042F00402828004E082884FF6FB731A4037
:101480008280704702884FF2FF731A400280028800
:101490000A4302807047018841F4805101807047FF
:1014A00021B1028842F40052028004E002884DF625
:1014B000FF731A400280704702460020012901D0C4
:1014C000108B00E0908A70470146088A7047B1F59A
:1014D000804F04D1028842F48042028004E00288F6
:1014E0004BF6FF731A4002807047024600201389B2
:1014F0000B400BB1012000E000207047CA4302817D
:101500007047F0B50246002000240023002501F0BA
:101510000F070126BE40B4B20B1101269E40B3B2A4
:10152000968806EA03051689264016B10DB10120FA
:1015300000E00020F0BD10B5002201F00F040123EF
:10154000A3409AB2D343038110BD00000030014094
:1015500000380040003C004010B50446FE4884427C
:1015600008D10121C014FFF727FE0021E014FFF786
:1015700023FEC4E0B4F1804F08D101210846FFF7F3
:1015800028FE00210120FFF724FEB8E0F348844242
:1015900008D101210220FFF71CFE00210220FFF7E5
:1015A00018FEACE0EE48844208D101210420FFF788
:1015B00010FE00210420FFF70CFEA0E0E948844261
:1015C00008D101210820FFF704FE00210820FFF7C1
:1015D00000FE94E0E448844208D101211020FFF786
:1015E000F8FD00211020FFF7F4FD88E0DF48844279
:1015F00008D101212020FFF7ECFD00212020FFF77A
:10160000E8FD7CE0DA48844208D101214014FFF76C
:10161000D3FD00216014FFF7CFFD70E0D548844270
:1016200009D10121C804FFF7C7FD00214FF40020B4
:10163000FFF7C2FD63E0D048844209D101210805CB
:10164000FFF7BAFD00214FF48010FFF7B5FD56E01B
:10165000CA48844209D101214805FFF7ADFD0021A8
:101660004FF40010FFF7A8FD49E0C548844208D1B7
:1016700001214020FFF7ADFD00214020FFF7A9FD2B
:101680003DE0C048844208D101218020FFF7A1FD40
:1016900000218020FFF79DFD31E0BB48844208D146
:1016A00001218015FFF795FD0021A015FFF791FDA1
:1016B00025E0B648844209D101210804FFF77CFDEA
:1016C00000214FF48030FFF777FD18E0B0488442E6
:1016D00009D101214804FFF76FFD00214FF40030CC
:1016E000FFF76AFD0BE0AB48844208D10121880472
:1016F000FFF762FD00214FF48020FFF75DFD10BD74
:1017000000220288944B98420ED0994B98420BD0FD
:10171000B0F1804F08D0914B984205D0904B984241
:1017200002D0904B984204D14FF68F731A404B88E9
:101730001A438D4B984207D08C4B984204D04FF6F9
:10174000FF431A40CB881A4302808B8883850B881D
:101750000385814B98420BD0854B984208D08B4B28
:10176000984205D08A4B984202D08A4B984201D1C8
:101770000B7A038601238382704770B50024002210
:101780000023058C4FF6FE7635400584028C838855
:10179000048B4FF68F752C40B51E2C400D882C43C2
:1017A000751E2A400D892A434D882A436A4DA84256
:1017B0000BD06F4DA84208D0744DA84205D0744D8F
:1017C000A84202D0734DA84213D14FF6F7752A40B4
:1017D0004D892A434FF6FB752A408D882A434FF6E0
:1017E000FF652B404FF6FF552B408D892B43CD894C
:1017F0002B4383800483CD888586028470BD70B5B9
:10180000002400220023058C4FF6EF763540058436
:10181000028C8388048B48F6FF752C404FF6FF45F9
:101820002C400D884FF6FF7606EA05252C434FF62F
:10183000DF752A400D8906EA05152A434D8806EA18
:1018400005152A43444DA84202D0494DA8421DD156
:101850004FF67F752A404D894FF6FF7606EA05154B
:101860002A434FF6BF752A408D8806EA05152A439C
:101870004FF6FF352B404FF2FF752B408D8906EA5E
:1018800085052B43CD8906EA85052B438380048398
:10189000CD880587028470BD70B500240022002326
:1018A000058C4FF6FF6635400584028C8388848B57
:1018B0004FF68F752C404FF6FC752C400D882C434D
:1018C0004FF6FF552A400D894FF6FF7606EA0525AB
:1018D0002A434D8806EA05252A431F4DA84202D017
:1018E000234DA8421DD14FF2FF752A404D894FF676
:1018F000FF7606EA05252A434FF6FF352A408D88F4
:1019000006EA05252A434EF6FF752B404DF6FF7576
:101910002B408D8906EA05152B43CD8906EA05156E
:101920002B4383808483CD888587028470BD70B506
:10193000002200230024058C4EF6FF7635400584F6
:10194000038C8488828B48F6FF752A404FF6FF454A
:101950002A400D8820E00000002C014000040040D7
:1019600000080040000C004000100040001400403F
:1019700000340140004C014000500140005401403F
:1019800000180040001C00400020004000400140C2
:1019900000440140004801404FF6FF7606EA052565
:1019A0002A434DF6FF752B400D8906EA05352B437A
:1019B0004D8806EA05352B43FA4DA84202D0FA4D70
:1019C000A84208D14BF6FF752C408D894FF6FF7663
:1019D00006EA85152C4384808283CD88A0F8405088
:1019E000038470BD828B4FF2FF331A408283828B57
:1019F0004FF6FF7303EA01231A4382837047F0B561
:101A00000C461546002200210026078C4EF6FF7C6E
:101A100007EA0C070784828B018C4FF6FF7707EAF1
:101A2000043640F6FF473A404FF6FF7707EA0527AE
:101A30003A434FF6FF7707EA03373A43D94FB842A4
:101A40000ED0D94FB8420BD0B0F1804F08D0D74F4D
:101A5000B84205D0D64FB84202D0D64FB84206D1D0
:101A60004DF6FF77394046F48057394305E047F695
:101A7000FF57394044F48057394382830184F0BDD5
:101A8000828B4FF6F3731A408283828B0A438283E0
:101A90007047F0B50C461546002200210026078C41
:101AA0004FF6FF6C07EA0C070784828B018C4FF618
:101AB000FF7707EA04264FF60C773A404FF6FF7798
:101AC00007EA03172F433A43B64FB8420ED0B64F3A
:101AD000B8420BD0B0F1804F08D0B44FB84205D017
:101AE000B34FB84202D0B34FB84206D14FF6FF57BA
:101AF000394046F48077394305E04FF2FF573940CB
:101B000044F48077394382830184F0BD028B4FF225
:101B1000FF331A400283028B4FF6FF7303EA01235F
:101B20001A4302837047F0B50C4615460022002187
:101B30000026078C4FF6EF7C07EA0C070784028B20
:101B4000018C4FF6FF7707EA041640F6FF473A404C
:101B50004FF6FF7707EA03373A434FF6FF7707EA76
:101B600005273A438F4FB8420ED08F4FB8420BD063
:101B7000B0F1804F08D08D4FB84205D08C4FB8429D
:101B800002D08C4FB84206D14FF6DF77394046F08D
:101B90001007394305E04FF65F77394044F01007EE
:101BA000394302830184F0BD028B4FF6F3731A4070
:101BB0000283028B0A4302837047F0B50C46154638
:101BC00000220021068C4FF6FE773E400684028BF1
:101BD000018C4FF60C7632407E1C06EA03162E432B
:101BE0003243704EB0420ED06F4EB0420BD0B0F1C7
:101BF000804F08D06D4EB04205D06D4EB04202D03D
:101C00006C4EB04206D14FF6FD76314044F00106ED
:101C1000314305E04FF6F576314044F0010631439B
:101C200002830184F0BD70B505460C465D488542CF
:101C30000ED05D4885420BD0B5F1804F08D05B488F
:101C4000854205D05A48854202D05A48854200D183
:101C500000E000BF208850B92389A2886188284607
:101C6000FFF7ABFFE1882846FFF79EFF25E02088BD
:101C700004280AD12389A28861882846FFF753FFE8
:101C8000E1882846FFF742FF17E0208808280AD19C
:101C90002389A28861882846FFF7FBFEE188284651
:101CA000FFF7EEFE09E02389A28861882846FFF746
:101CB000A6FEE1882846FFF795FE70BD2DE9F041AC
:101CC00005460C4600260127608808B9022600E078
:101CD0000026A088012801D1022700E001272088E2
:101CE000A0B92389A28861882846FFF766FFE188AA
:101CF0002846FFF759FF23893A4631462846FFF721
:101D000012FFE1882846FFF701FF13E02389A2882C
:101D100061882846FFF707FFE1882846FFF7F6FEAF
:101D200023893A4631462846FFF747FFE18828468F
:101D3000FFF73AFFBDE8F0810A884B881A438B8889
:101D40001A43CB881A430B891A434B891A438B8950
:101D50001A43A0F8442070474FF6FF71818000219C
:101D60000180C18041800172704700210180418063
:101D70008180C180018141818181C18170470021C1
:101D800001804180012181800021C1800181704753
:101D90000021018041808180C18001814181818158
:101DA00070470000002C0140003401400004004056
:101DB00000080040000C004021B1028842F00102FE
:101DC000028004E002884FF6FE731A4002807047DA
:101DD00031B1B0F8442042F40042A0F8442005E0BC
:101DE000B0F84420C2F30E02A0F8442070471AB1A4
:101DF00083890B43838102E083898B43838170470E
:101E00008182704741EA0203A0F8483070471AB156
:101E100083890B43838102E083898B4383817047ED
:101E200001894FF6F8721140018170470A4600217E
:101E300001894FF68F73194011430181704730B506
:101E400004460D4629462046FFF7F0FF208940F062
:101E50000700208130BD2DE9F04104460D461646AD
:101E60001F46602D06D13B46012231462046FFF732
:101E70005AFE05E03B46012231462046FFF79DFE13
:101E800029462046FFF7D2FF208940F00700208135
:101E9000BDE8F08130B50C4600210189C9B24FF68A
:101EA000FF7505EA0325154325432943018130BD0C
:101EB0002DE9F04105460E46174698460024434654
:101EC0003A4631462846FFF7E5FF2C894FF6F87071
:101ED000044044F007044FF68F70044044F070044F
:101EE0002C81BDE8F081F0B504460D4616461F462C
:101EF0003B46324629462046FFF7CCFF208940F476
:101F000080402081F0BD0185828270470A46002111
:101F100001884FF68F731940114301807047F0B567
:101F20000C4615461E460021002200230189028B23
:101F3000038C4FF6F877394021434FF6FC473A407F
:101F400040F201173A434FF6DD773B404FF6FF77FB
:101F500007EA06172F433B43018102830384F0BD48
:101F60000A460021018B4FF68F73194011430183FC
:101F700070470A460021018B48F6FF7319404FF65F
:101F8000FF7303EA02231943018370470A460021C5
:101F9000818B4FF68F7319401143818370470A4636
:101FA0000021818B48F6FF7319404FF6FF7303EA57
:101FB000022319438183704721B1028842F08002D5
:101FC000028004E002884FF67F731A400280704757
:101FD00021B1828842F00402828004E082884FF6B8
:101FE000FB731A408280704721B1828842F0080258
:101FF000828004E082884FF6F7731A40828070472F
:1020000021B1828842F00102828004E082884FF68A
:10201000FE731A40828070470A460021018B4FF6FA
:10202000F77319401143018370470A460021018B61
:102030004FF2FF7319404FF6FF7303EA022319436F
:10204000018370470A460021818B4FF6F7731940D0
:102050001143818370470A460021818B4FF2FF7341
:1020600019404FF6FF7303EA022319438183704737
:102070000A460021018B4FF6FB731940114301837F
:1020800070470A460021018B4FF6FF3319404FF687
:10209000FF7303EA02231943018370470A460021B4
:1020A000818B4FF6FB7319401143818370470A46B9
:1020B0000021818B4FF6FF3319404FF6FF7303EA7F
:1020C00002231943818370470A460021018B4FF692
:1020D0007F7319401143018370470A460021018B29
:1020E000C1F30E014FF6FF7303EA02231943018384
:1020F00070470A460021818B4FF67F7319401143C8
:10210000818370470A460021818BC1F30E014FF68F
:10211000FF7303EA02231943818370470A460021B3
:10212000018C4FF6FD7319401143018470470A4634
:102130000021018C4FF6F773194011430184704759
:102140000A460021018C4FF6DF7319404FF6FF73EA
:1021500003EA02131943018470470A460021018CE7
:102160004FF67F7319404FF6FF7303EA02131943CA
:10217000018470470A460021018C4FF6FF53194035
:102180004FF6FF7303EA02231943018470470A469E
:102190000021018C4FF2FF7319404FF6FF7303EAE1
:1021A00002231943018470470A460021018C4DF631
:1021B000FF7319404FF6FF7303EA0233194301849A
:1021C000704730B5002301248C40A3B2048C9C439B
:1021D0000484048C02FA01F5ADB22C43048430BDB2
:1021E00030B5002304248C40A3B2048C9C430484A7
:1021F000048C02FA01F5ADB22C43048430BD70B5F5
:102200000346002000241846183001258D40ACB24A
:102210001D8CA5431D8409B1082909D100EB61007B
:10222000056825F0700505600568154305600EE03A
:102230000D1FC5F34E052844056825F4E0450560EB
:1022400005684FF6FF7606EA02263543056070BD45
:1022500021B1028842F00202028004E002884FF6B7
:10226000FD731A400280704721B1028842F00402D7
:10227000028004E002884FF6FB731A400280704728
:1022800021B1828842F08002828004E082884FF689
:102290007F731A408280704702884FF6F7731A40A6
:1022A000028002880A430280704782884FF68F734B
:1022B0001A40828082880A438280704702894FF6E2
:1022C000F8731A40028102890A4302817047028929
:1022D0004FF67F731A40028102890A4302817047D8
:1022E0008184704781857047818670470187704778
:1022F00081877047A0F84010704702884FF6FF436F
:102300001A40028002880A43028070470146888E84
:1023100070470146088F70470146888F7047014615
:10232000B1F8400070470146888C70470146088D1F
:10233000704702460020138A0B400BB1012000E0D9
:1023400000207047CA430282704730B50246002021
:1023500000230024158A05EA0103958905EA010492
:1023600013B10CB1012000E0002030BDCA4302824D
:102370007047000010B50446FB48844209D1012192
:102380008803FEF719FF00214FF48040FEF714FF89
:1023900032E0F648844209D101214804FEF719FFD2
:1023A00000214FF40030FEF714FF25E0F04884428E
:1023B00009D101218804FEF70CFF00214FF4802091
:1023C000FEF707FF18E0EB48844209D10121C80459
:1023D000FEF7FFFE00214FF40020FEF7FAFE0BE0AF
:1023E000E548844208D101210805FEF7F2FE0021EC
:1023F0004FF48010FEF7EDFE10BD2DE9F04786B0DA
:1024000005460E460024A24600BFA1460027B0891B
:1024100000B100BF2F462C8A4CF6FF700440F088B4
:1024200004432C82AC894EF6F3100440B088318905
:102430000843718908430443AC81AC8A4FF6FF40DE
:102440000440B0890443AC8201A8FEF72EFEC648C2
:10245000874202D1DDF810A001E0DDF80CA0A889C8
:1024600000F4004040B10AEBCA0000EB0A103168EA
:102470004900B0FBF1F807E00AEBCA0000EB0A10D4
:1024800031688900B0FBF1F86420B8FBF0F004017A
:102490002009642101FB1089A88900F4004040B1A3
:1024A000322000EBC900B0FBF1F000F0070004435C
:1024B00008E0322000EB09106421B0FBF1F000F0DD
:1024C0000F0004432C8106B0BDE8F0874FF416518D
:1024D000016000218180C18001810C2141810021A6
:1024E0008181704710B502460020108A4FF2FF0329
:1024F00018400B884C8823438C882343CC88234383
:102500001843108210BD0021018041808180C1806C
:10251000704721B1828942F40052828104E08289AD
:102520004DF6FF731A4082817047F0B503460024D0
:1025300000260025002040F66A17B94200D100BFEE
:102540001846C1F3421401F01F06012707FA06F5E9
:10255000012C01D10C3004E0022C01D1103000E03C
:1025600014301AB107682F43076002E00768AF43D1
:102570000760F0BD1AB1838A0B43838202E0838A2D
:102580008B4383827047028A4FF6F0731A400282AF
:10259000028A0A430282704782894FF2FF731A400F
:1025A000828182890A438281704721B1828942F007
:1025B0000202828104E082894FF6FD731A40828113
:1025C0007047028A4FF6DF731A400282028A0A437A
:1025D0000282704721B1028A42F48042028204E002
:1025E000028A4BF6FF731A4002827047C1F3080259
:1025F0008280704701468888C0F30800704781894F
:1026000041F0010181817047028BD2B20283028BBB
:1026100042EA012202837047028B02F47F42028366
:10262000028B0A430283704721B1828A42F0200262
:10263000828204E0828A4FF6DF731A4082827047FA
:1026400021B1828A42F01002828204E0828A4FF62F
:10265000EF731A408282704721B1828A42F00802E9
:10266000828204E0828A4FF6F7731A4082827047B2
:1026700021B1828942F40042828103E08289C2F35F
:102680000E028281704721B1828A42F40062828206
:1026900004E0828A4FF2FF731A4082827047828A76
:1026A0004FF6FB731A408282828A0A438282704705
:1026B00021B1828A42F00202828204E0828A4FF6CD
:1026C000FD731A408282704702460020B1F5007FF8
:1026D00000D100BF13880B400BB1012000E00020A7
:1026E000704701F40072B2F5007F00D100BFCA4309
:1026F0000280704770B502460024002300250020A8
:1027000040F66A16B14200D100BFC1F3421501F094
:102710001F03012606FA03F3012D02D196893340E7
:1027200006E0022D02D1168A334001E0968A33403A
:102730000C12012606FA04F41688344013B10CB1C9
:10274000012000E0002070BD10B50022002340F6FB
:102750006A14A14200D100BF0A1201249440A3B21E
:10276000DC43048010BD00000038014000440040FC
:1027700000480040004C00400050004000E0401E77
:102780000028FCD1704710B500F0CCF806F0E8FE48
:1027900005F024FF05F0DEFF01F09EF901F068FA74
:1027A00002F056F802F07AFE0021062003F0EEFB5C
:1027B00000F0E3F900F03DFD00F0DEFB05F050FE17
:1027C00006A007F0ABFA03E003F06AFD06F054FC44
:1027D0000C4800680028F7D110BD00000D0AD2B0E7
:1027E000BBF02057462D45535038323636205769B6
:1027F0004669C4A3BFE9B2E2CAD4C0FDB3CC0D0A96
:102800000000000028000020704700BFFEE700BF66
:10281000FEE700BFFEE700BFFEE770477047704766
:10282000704710B51020FDF771FE40B138480068C0
:1028300080F02000364908601020FDF778FE10BDBA
:1028400070B540F225513348FFF754FFB0B131481D
:10285000FFF7D0FEC5B2304800F03CF9044664B141
:10286000A18820684554A088401C80B2A0801E2802
:1028700004DB294800F048F900E070BD40F2244133
:102880002448FFF737FF012806D1234800F03CF920
:102890002048FFF7AFFEC5B200BFEEE710B540F22B
:1028A00025511E48FFF726FFD8B11C48FFF7A2FEAE
:1028B000C4B21B48B0F80004C0F30E0040F2FF3170
:1028C00088420EDA1649B1F80014C1F30E00411C1B
:1028D000134AB2F8002461F30E021149A1F8002452
:1028E0000C5440F224410D48FFF704FF01280DD19C
:1028F0000B48B0F8000420F4004000F500400849FF
:10290000A1F800040548FFF775FEC4B210BD000031
:102910000C0C014000440040980100200048004099
:10292000204B002000B585B001211020FEF72AFCC5
:102930000121C804FEF733FC4FF48060ADF81000AD
:1029400018208DF8130003208DF8120004A94F48B9
:10295000FEF75CF94FF40060ADF8100004208DF82C
:10296000130004A94948FEF751F94FF4165000909E
:102970000020ADF80400ADF80600ADF80800ADF891
:102980000C000C20ADF80A0069464148FFF735FD00
:1029900001213F48FFF7BDFD05B000BD70B50446FD
:1029A0000D4629462046FFF721FE00BF8021204624
:1029B000FFF78AFE0028F9D070BD2DE9F0410746E7
:1029C0000D461646002405E0295D3846FFF7E6FF70
:1029D000601CC4B2B442F7DB00BF40213846FFF7A9
:1029E00073FE0028F9D0BDE8F08170B506460C46AC
:1029F000002500BF615D3046FFF7D0FF6D1C605DB4
:102A00000028F7D100BF40213046FFF75DFE0028C7
:102A1000F9D070BD2DE9F04105460C46260AE7B213
:102A200031462846FFF7E2FD00BF80212846FFF728
:102A30004BFE0028F9D039462846FFF7D7FD00BFE6
:102A400080212846FFF740FE0028F9D0BDE8F0813C
:102A500070B504460D46E1B20D48FFF7C7FD00BF53
:102A600080210B48FFF730FE0028F9D0204670BDCA
:102A700010B5044600BF20210548FFF725FE0028B9
:102A8000F9D00348FFF7B6FD10BD0000001001406B
:102A9000004C0040016000224260826070470146A5
:102AA000D1E9002050408A68904201D1012070474E
:102AB0000020FCE70146D1E90120904201D101202C
:102AC00070470020FCE7024610684000401E4B1C87
:102AD0001840704710B504462046FFF7E0FF08B1E4
:102AE000002010BD2169A068884204D12046A16859
:102AF000FFF7E9FF20612168491E2069084004F1C1
:102B0000140151F82000ECE701698160704710B5AD
:102B100004462046FFF7CEFF08B1002010BDE16853
:102B20006068884204D120466168FFF7CCFFE0600E
:102B30002168491EE068084004F1140151F82000A2
:102B4000ECE700230268521EC168114000F1140234
:102B500052F821108B80C16841607047002000BF8F
:102B600008E03A4951F8301019B10021374A42F8CB
:102B70003010401C0228F4D3704710B500243348AD
:102B80000021016041608160C16002213048FFF78F
:102B900081FF00BF17E0C4EB04102E4901EB400099
:102BA0002A4941F83400084600EBC4012848143093
:102BB00040F8241000BF00BF244951F834001E2102
:102BC00006F027FD641C022CE5D300BF00BF00BF48
:102BD00000BF10BD2DE9F04106460F46002517E065
:102BE0001B48FFF777FF044654B1705D21684855D4
:102BF000A088401CA080A18817A007F08FF801E0F2
:102C0000BDE8F08100BF00BF00BF00BF681CC5B2B7
:102C1000BD42E5DB0E48FFF777FF00BF00BF00BFF6
:102C200000BF00BFECE710B50948FFF770FF04468E
:102C30005CB10020A2882168885400BF00BF00BF9B
:102C4000206800BF0248FFF77CFF10BD880100200C
:102C500098010020B40100200D0A646174615F7066
:102C60002D3E6C656E203D256400000010B54FF4CC
:102C7000A073F0220021084601F045FE4FF6FF71D7
:102C80004FF4784002F0DAFBD44802F0D1FBD4A232
:102C90000A21002002F053F900F011FD04466CB93E
:102CA000D2A22821002002F04AF96FF07F40FFF7FE
:102CB00065FDD448007804F014FD02E0204600F0E1
:102CC0001AFD10BD10B50120CF4908604FF4A07364
:102CD000F0220021084601F016FE4FF6FF714FF476
:102CE000784002F0ABFBBD4802F0A2FBC7A20A216C
:102CF000002002F024F9C9A22821002002F01FF9C7
:102D00006FF07F40FFF73AFDBE48007804F0B6FF51
:102D100010BD38B5002000904FF4A073F0220021C0
:102D2000084601F0F0FD4FF6FF714FF4784002F0D5
:102D300085FBAA4802F07CFBC1A20A21002002F018
:102D4000FEF800F03DFB044614BB012000F058FBE8
:102D50000446CCB96B46F0220021012000F00DFCA6
:102D600004466CB9BDA22821002002F0E8F86FF0FB
:102D70007F40FFF703FD0025284603F0CBFA0AE069
:102D8000204600F0B8FC06E0204600F0B4FC02E06B
:102D9000204600F0B0FC38BDF8B5012000900020BE
:102DA000064605460120B5490860C3E0052E42D21B
:102DB000DFE806F00342627D9300681C85B24FF4A1
:102DC000A073F0220021084601F09DFD4FF6FF712F
:102DD0004FF4784002F032FB804802F029FBA8A2B1
:102DE0000A21002002F0ABF800F0EAFA0446002CB9
:102DF0001ED1012000F004FB0446ACB9A4A2282196
:102E0000002002F09CF86B46F0220021012000F027
:102E1000B4FB04462CB9A3A24621002002F08FF88F
:102E2000F8BD0025012606E0204600F064FC02E023
:102E3000204600F060FC70E0681C85B2A1A264210D
:102E4000002002F07CF800F0BBFA044684B90220AE
:102E500000F0D6FA04463CB9A0A28221002002F07C
:102E60006EF80025022606E0204600F044FC02E051
:102E7000204600F040FC50E09DA2A021002002F07E
:102E80005EF800F013FB044634B99FA2BE21002077
:102E900002F055F8032609E0A1A2D221002002F099
:102EA0004EF8204600F027FC0025002635E0A4A2BD
:102EB000F021002002F043F800F014FB04463CB976
:102EC000A4A24FF48771002002F039F8042603E031
:102ED0000026204600F00FFC1FE04FF6FF7002F0C6
:102EE000BCFAA2480388A24802880021084601F0E3
:102EF0000AFD4AA21E21002002F021F86FF07F4057
:102F0000FFF73CFC01209B49086000205B490860FA
:102F10003C48007804F0B2FE00BF00BF4FF47A7066
:102F200000F078FE042D05D193A28221002002F04A
:102F300006F804E05148006800287FF437AF00BF6E
:102F400000BF6DE710B590480468012C06D0022C34
:102F500007D0032C08D0042C0CD108E0FFF71CFF8D
:102F600008E0FFF7D6FE05E0FFF7ACFE02E0FFF752
:102F70007DFE00BF00BF10BD10B54FF4A073F0225E
:102F80000021084601F0BFFC4FF6FF714FF4784076
:102F900002F054FA114802F04BFA7CA250210020B2
:102FA00001F0CDFF7FA26E21002001F0C8FF834811
:102FB000FFF7E4FB824800F043FA28B181A28C219C
:102FC000002001F0BCFF08E087A2AA21002001F048
:102FD000B6FF0C48007804F084FB10BD58000020B8
:102FE000C7E5BFD5D6B8CEC6BFE20000C7E5BFD59E
:102FF000D6B8CEC6BFE2B3C9B9A6A3A1A3A1A3A167
:10300000000000007000002038000020C9BEB3FDA1
:10301000D6B8B6A8D3C3BBA749440000C3FCC1EED1
:10302000A3BAC7EBCAE4C8EBB4E6B4A24944A3AC64
:10303000B7B6CEA7CEAA30A1AA323339000000001D
:10304000C3FCC1EEA3BAB6D4B1C8D6B8CEC6A3AC41
:10305000C7EBB0B4CAD6D6B800000000B6D4B1C829
:10306000D6B8CEC6B3C9B9A6A3ACD6B8CEC6494465
:10307000A3BA2564A3A1A3A1A3A10000400000203E
:10308000C3FCC1EEA3BAC7EBB0B4CAD6D6B8000031
:10309000CAE4C8EBD6B8CEC631D5FDB3A3A3A1A36D
:1030A000A1A3A100D6B8CEC6D2D1B4E6D4DAA3ACDF
:1030B000D6B8CEC64944A3BA2564A3A1A3A1A3A1AF
:1030C00000000000C3FCC1EEA3BAC7EBD4D9B0B472
:1030D000D2BBB4CECAD6D6B800000000CAE4C8EB52
:1030E000D6B8CEC632D5FDB3A3A3A1A3A1A3A10098
:1030F000D5FDD4DAB6D4B1C8C1BDB4CECAE4C8EBEC
:10310000B5C4D6B8CEC60000CAE4C8EBD6B8CEC6A1
:10311000B6D4B1C8B3C9B9A6A3A1A3A1A3A1000005
:10312000B6D4B1C8CAA7B0DCA3ACC7EBD6D8D0C25E
:10313000C2BCC8EBD6B8CEC6A3A1A3A1A3A1000070
:10314000D5FDD4DAC9FAB3C9D6B8CEC6C4A3BFE98F
:1031500000000000C9FAB3C9D6B8CEC6C4A3BFE9FF
:10316000B3C9B9A6A3A1A3A1A3A100006E0000202A
:103170006C0000203C000020C2BCD6B8CEC6CAA756
:10318000B0DCA3A10000000050010020D5E2CAC7B6
:10319000D2BBB8F6D6B8CEC6C4A3BFE9CAB5D1E98A
:1031A00000000000BBB6D3ADCAB9D3C3D2B0BBF0E8
:1031B00053544D3332BFAAB7A2B0E500FFFF0F0052
:1031C00044000020CEB4BCECB2E2B5BDD6B8CEC649
:1031D000C4A3BFE9A3ACC7EBBCECB2E9C1ACBDD39F
:1031E000A3A1A3A1A3A10000CDA8D1B6B3C9B9A63C
:1031F0000000000008B54FF4A060FDF7A5F82620F8
:103200008DF8000001208DF801008DF802008DF886
:1032100003006846FDF79DF80A208DF800000120A4
:103220008DF8010002208DF802006846FDF791F844
:1032300008BD00B587B001210520FDF7A3FF0121DE
:103240000420FDF79FFF01214804FDF7A8FFFFF7C9
:10325000D1FF1020ADF8180004208DF81B0006A93E
:10326000FE48FDF7D3FC04210020FDF7E5FD10200A
:10327000049000208DF8140010208DF81500012016
:103280008DF8160004A8FDF7DBF80420ADF818004F
:1032900018208DF81B0003208DF81A0006A9EF48AE
:1032A000FDF7B4FC0820ADF8180004208DF81B00D1
:1032B00006A9EA48FDF7AAFC4FF4614000900020FF
:1032C000ADF80400ADF80600ADF80800ADF80C004C
:1032D0000C20ADF80A006946E148FFF78EF801229C
:1032E00040F22551DE48FFF720F9012240F2244147
:1032F000DB48FFF71AF90121D948FFF70AF907B0AF
:1033000000BD10B504462146D548FFF76FF900BF50
:103310008021D348FFF7D8F90028F9D010BD10B5A7
:10332000EF20FFF7EEFF0120FFF7EBFFCD49096823
:10333000080EFFF7E6FFCB480068C0F30740FFF731
:10334000E0FFC8480088C0F30720FFF7DAFFC5494F
:103350000878FFF7D6FF10BD10B504462046FFF7EA
:10336000D0FF10BD10B504462012FFF7CAFFE0B22F
:10337000FFF7C7FF10BD10B504462046FFF7C1FF99
:1033800010BD10B504462012FFF7BBFFE0B2FFF7F7
:10339000B8FF10BD70B50446B348FFF7B8FB05464B
:1033A00055B100BF286800BF2868407A2080AE4829
:1033B000FFF7C7FB208870BDFF2020802088FAE738
:1033C00038B50020009040F6B83000F023FCFFF73D
:1033D000A6FF0120FFF7C0FF0320FFF7C3FF012076
:1033E000FFF7C9FF05242046FFF7CBFF4FF4FA7023
:1033F00000F010FC6846FFF7CDFF0546284638BDB3
:10340000F8B5044600200090FFF789FF0120FFF780
:10341000A3FF0420FFF7A6FF0220FFF7ACFF204622
:10342000FFF76FFFE51D2846FFF7ABFF4FF416705F
:1034300000F0F0FB6846FFF7ADFF06463046F8BDEA
:1034400038B50546FFF76BFF0120FFF75AFF002054
:10345000FFF757FF0020FFF754FF642000F0DAFB6E
:103460008148FFF754FB0446002C1DD000BF2068A4
:1034700000BF20680078EF2811D12068407801282B
:103480000DD120688079072809D120684079009003
:1034900020680379C278817874A006F03FFC7248F6
:1034A000FFF74FFB002038BD0120FCE738B50020B6
:1034B0000090FFF734FF0120FFF74EFF0320FFF7D6
:1034C00051FF0320FFF757FF07242046FFF759FF5E
:1034D0004FF4FA7000F09EFB6846FFF75BFF05466D
:1034E000284638BD38B500200090FFF718FF0120AE
:1034F000FFF732FF0320FFF735FF0520FFF73BFF03
:1035000009242046FFF73DFF4FF4FA7000F082FBDC
:103510006846FFF73FFF0546284638BD5F49086803
:103520007047F8B505460C4600200090FFF7F7FEFF
:103530000120FFF711FF0620FFF714FF0620FFF719
:103540001AFF2846FFF7DDFE2012FFF7DAFEE0B291
:10355000FFF7D7FE05F10D0000EB2420E1B246187D
:103560003046FFF70EFF4FF4FA7000F053FB684649
:10357000FFF710FF07463846F8BD2DE9F0478046B3
:103580000C4615469946FFF7CAFE0120FFF7E4FEF8
:103590000820FFF7E7FE1B20FFF7EDFE4046FFF790
:1035A000B0FE2012FFF7ADFEE0B2FFF7AAFE281230
:1035B000FFF7A7FEE8B2FFF7A4FE08F1240000EB36
:1035C0002420E1B2084400EB2520E9B200EB010A17
:1035D0005046FFF7D6FE4FF4FA7000F01BFB22486E
:1035E000FFF795FA064696B100BF306800BF306815
:1035F000477A3068C07A3168897A00EB0120A9F8EF
:1036000000001948FFF79DFA3846BDE8F087FF270C
:103610003846FAE7F8B504460D4600200090FFF75B
:103620007EFE0120FFF798FE0720FFF79BFE0C208F
:10363000FFF7A1FE2012FFF764FEE0B2FFF761FE84
:103640002812FFF75EFEE8B2FFF75BFE142000EBE6
:103650002420E1B2084400EB252021E000080140CD
:103660000044004044000020980100203C3C2D41D3
:10367000533630382D494E464F2D3E3E20D6B8CEDB
:10368000C6C4A3BFE9B5C4B5D8D6B7CEAA3A307878
:1036900025782578257825780D0A0A006001002014
:1036A000E9B246183046FFF76CFE4FF4C87000F0E0
:1036B000B1FA6846FFF76EFE07463846F8BD38B5E2
:1036C00000200090FFF72BFE0120FFF745FE0320AE
:1036D000FFF748FE0D20FFF74EFE11242046FFF7AE
:1036E00050FE4FF4C87000F095FA6846FFF752FE9E
:1036F0000546284638BD70B504460125002081499D
:103700000860212C76D2DFE804F0111B252F394305
:103710004D57616B7680EEEEEEEE8A94EEEEEE9E05
:10372000EEEEA8B2BCC6D0EEEEDAE40076A23C2102
:10373000002001F004FC6FF07F40FFF71FF8DCE091
:1037400072A23C21002001F0FAFB6FF07F40FFF7EE
:1037500015F8D2E06DA23C21002001F0F0FB6FF0E3
:103760007F40FFF70BF8C8E068A23C21002001F081
:10377000E6FB6FF07F40FFF701F8BEE067A23C2157
:10378000002001F0DCFB6FF07F40FEF7F7FFB4E0B4
:103790006AA23C21002001F0D2FB6FF07F40FEF7CF
:1037A000EDFFAAE06DA23C21002001F0C8FB6FF004
:1037B0007F40FEF7E3FFA0E06FA23C21002001F074
:1037C000BEFB6FF07F40FEF7D9FF96E078A23C2168
:1037D000002001F0B4FB6FF07F40FEF7CFFF8CE0DC
:1037E00076A23C21002001F0AAFB6FF07F40FEF79B
:1037F000C5FF82E077E07AA23C21002001F09FFB28
:103800006FF07F40FEF7BAFF77E079A23C210020FD
:1038100001F095FB6FF07F40FEF7B0FF6DE07DA2F9
:103820003C21002001F08BFB6FF07F40FEF7A6FFEC
:1038300063E07CA23C21002001F081FB6FF07F401F
:10384000FEF79CFF59E07BA23C21002001F077FBB2
:103850006FF07F40FEF792FF4FE07FA23C210020F7
:1038600001F06DFB6FF07F40FEF788FF45E07EA220
:103870003C21002001F063FB6FF07F40FEF77EFFEC
:103880003BE07CA23C21002001F059FB6FF07F401F
:10389000FEF774FF31E07BA23C21002001F04FFBDA
:1038A0006FF07F40FEF76AFF27E07BA23C210020FB
:1038B00001F045FB6FF07F40FEF760FF1DE07BA24B
:1038C0003C21002001F03BFB6FF07F40FEF756FFEC
:1038D00013E079A23C21002001F031FB6FF07F4022
:1038E000FEF74CFF09E077A23C21002001F027FB06
:1038F0006FF07F40FEF742FF00BF00BF284602F096
:1039000009FD70BD400000204F4B0000CAFDBEDD28
:10391000B0FCBDD3CAD5B4EDCEF30000D6B8CEC648
:10392000CDBCCFF1CCABB8C9A1A2CCABB5ADB6F88C
:10393000C9FAB2BBB3C9CCD8D5F70000D6B8CEC649
:10394000CDBCCFF1CCABCAAAA1A2CCABBAFDB6F824
:10395000C9FAB2BBB3C9CCD8D5F70000D6B8CEC629
:10396000CDBCCFF1CCABC2D2B6F8C9FAB2BBB3C9A9
:10397000CCD8D5F700000000D6B8CEC6CDBCCFF16C
:10398000D5FDB3A3A3ACB5ABCCD8D5F7B5E3CCABE1
:10399000C9D9A3A8BBF2C3E6BBFDCCABD0A1A3A9F8
:1039A000B6F8C9FAB2BBB3C9CCD8D5F7000000004D
:1039B000D6B8CEC6B2BBC6A5C5E40000B6D4B1C861
:1039C000D6B8CEC6CAA7B0DCA3ACD6B8CEC6BFE2C6
:1039D000B2BBB4E6D4DAB4CBD6B8CEC6A3A100004D
:1039E000CCD8D5F7BACFB2A2CAA7B0DC000000008D
:1039F000B7C3CECAD6B8CEC6BFE2CAB1B5D8D6B75D
:103A0000D0F2BAC5B3ACB3F6D6B8CEC6BFE2B7B63D
:103A1000CEA70000C9BEB3FDC4A3B0E5CAA7B0DC01
:103A200000000000C7E5BFD5D6B8CEC6BFE2CAA722
:103A3000B0DC0000BBBAB3E5C7F8C4DAC3BBD3D06F
:103A4000D3D0D0A7D4ADCABCCDBCB6F8C9FAB2BBEE
:103A5000B3C9CDBCCFF10000B6C1D0B420464C41B3
:103A6000534820B3F6B4ED00CEB4B6A8D2E5B4ED19
:103A7000CEF30000CEDED0A7BCC4B4E6C6F7BAC50C
:103A800000000000BCC4B4E6C6F7C9E8B6A8C4DAB2
:103A9000C8DDB4EDCEF30000BCC7CAC2B1BED2B31C
:103AA000C2EBD6B8B6A8B4EDCEF30000D6B8CEC6F9
:103AB000BFE2C2FA00000000B5D8D6B7B4EDCEF32D
:103AC00000000000C4A3BFE9B7B5BBD8C8B7C8CFD2
:103AD000C2EBD3D0CEF3000008B501210820FDF7DA
:103AE00051FB2020ADF8000010208DF803000320CA
:103AF0008DF8020069460F48FDF788F80120ADF8FF
:103B0000000069460B48FDF781F80220ADF800007F
:103B100069460848FDF77AF820210648FDF723F9A1
:103B200001210448FDF71FF902210248FDF71BF9A6
:103B300008BD0000000C014030B50146B1F1807FA6
:103B400001D3012030BD21F07F40401E4FF0E02224
:103B5000506150170F22002807DA13071D0E3E4B45
:103B600000F00F04241F1D5503E013071C0E3B4BF0
:103B70001C5400BF00204FF0E0229061072010612C
:103B80000020DFE710B5364800683649B0FBF1F495
:103B90002046FFF7D1FF08B100BFFEE710BD01B519
:103BA0003149009808604FF0E020006940F00100C2
:103BB0004FF0E021086100BF2B4800680028FBD1CE
:103BC00008BD2948006820B127480068401E2649E2
:103BD0000860704731B5224800682449B0FBF1F510
:103BE0002846FFF7A9FF002408E000BF4FF0E020BF
:103BF000006900F480300028F8D0641C00988442EA
:103C0000F3D34FF0E020006920F001004FF0E021F5
:103C1000086138BD31B5124800684FF47A71B0FBC5
:103C2000F1F52846FFF788FF002408E000BF4FF0B9
:103C3000E020006900F480300028F8D0641C00986F
:103C40008442F3D34FF0E020006920F001004FF0F0
:103C5000E021086138BD000018ED00E000E400E05C
:103C600000000020A08601004800002040420F0014
:103C700008B501210420FDF785FA4FF48070ADF8F6
:103C8000000010208DF8030003208DF80200694623
:103C90000448FCF7BBFF4FF480710248FDF765F85C
:103CA00008BD00000008014000B587B001210803ED
:103CB000FDF768FA0121D420FDF764FA0120ADF880
:103CC000040003208DF8060010208DF8070001A9DC
:103CD000FE48FCF79BFF2020ADF8040018208DF86B
:103CE000070001A9FA48FCF791FF4020ADF8040055
:103CF00001A9F748FCF78AFF8020ADF8040001A96C
:103D0000F348FCF783FF0121F048FDF72CF8002071
:103D1000ADF808004FF48270ADF80A000020ADF84D
:103D20000C000220ADF80E000120ADF8100040029A
:103D3000ADF812000820ADF814000020ADF8160010
:103D40000720ADF8180002A9E248FDF7A5FA012105
:103D5000E048FDF746FB07B000BD10B5044621461C
:103D6000DDA005F0DBFF002010BD10B504464FF4C8
:103D70008050E54908600AE0E3490868411EE24ACC
:103D8000116020B90020FFF7E8FFC0B210BD02218A
:103D9000D048FDF7AAFB0028EED02146CD48FDF71C
:103DA00051FB4FF48050D84908600AE0D6490868B2
:103DB000411ED54A116020B90120FFF7CEFFC0B2E5
:103DC000E4E70121C348FDF790FB0028EED0C1488D
:103DD000FDF73AFBC0B2D9E710B500240121BB487A
:103DE000FCF7C3FF0520FFF7C0FF00BFFF20FFF770
:103DF000BCFF044604F001000028F7D10121B348BC
:103E0000FCF7B1FF10BD10B50121B048FCF7ADFFC4
:103E10000620FFF7AAFF0121AC48FCF7A4FF10BD64
:103E200010B50446FFF7EFFFFFF7D6FF0121A748C3
:103E3000FCF79BFF2020FFF798FFC4F30740FFF734
:103E400094FFC4F30720FFF790FFE0B2FFF78DFF68
:103E500001219E48FCF787FFFFF7BEFF10BD10B59C
:103E6000FFF7D1FF01219948FCF77FFFC720FFF73B
:103E70007CFF01219548FCF776FFFFF7ADFF10BDF1
:103E800070B505460C461646FFF7BDFF01218F4869
:103E9000FCF76BFF0220FFF768FFC4F30740FFF752
:103EA00064FFC4F30720FFF760FFE0B2FFF75DFF98
:103EB000B6F5807F04DD4FF4807694A005F02EFFE8
:103EC00003E02878FFF751FF6D1C3000A6F10101D7
:103ED0008EB2F6D101217D48FCF745FFFFF77CFF4C
:103EE00070BD2DE9F05F07460E4614464FF00008FE
:103EF000C146C2460025AB4606F0FF0ACAF10000E3
:103F0000C5B22046E11704EB1161C1F30728E117A0
:103F100004EB11610912A4EB012101F0FF09BAF1D0
:103F2000000F20D1B8F1000F05D1224631463846A6
:103F3000FFF7A6FF64E009E04FF48072314638468F
:103F4000FFF79EFF06F5807607F580775FEA0800A9
:103F5000A8F1010101F0FF08EED14A46314638468A
:103F6000FFF78EFF4CE0B8F1000F18D1A94510DD26
:103F7000A9EB050000F0FF0B2A4631463846FFF753
:103F80007FFF2E442F445A4631463846FFF778FFCC
:103F900036E0224631463846FFF772FF30E0601BBC
:103FA00084B22046E11704EB1161C1F30728E11741
:103FB00004EB11610912A4EB012101F0FF092A466B
:103FC00031463846FFF75CFF2E442F4409E04FF49A
:103FD000807231463846FFF753FF06F5807607F5C5
:103FE00080775FEA0800A8F1010101F0FF08EED137
:103FF000B9F1000F04D04A4631463846FFF740FF7A
:10400000BDE8F09F70B505460C46164601212F48C5
:10401000FCF7ABFE0320FFF7A8FEC4F30740FFF751
:10402000A4FEC4F30720FFF7A0FEE0B2FFF79DFE59
:1040300004E0FF20FFF799FE28706D1C3000A6F108
:1040400001018EB2F5D101212048FCF78CFE70BD34
:104050002DE9F041002400250026002701211B48FE
:10406000FCF783FE9F20FFF780FEFF20FFF77DFE19
:104070000546FF20FFF779FE0646FF20FFF775FE95
:10408000074601211148FCF76EFE280440EA06208D
:1040900040EA07042046BDE8F08110B50024012164
:1040A0000A48FCF762FEAB20FFF75FFEFF20FFF738
:1040B0005CFEFF20FFF759FEFF20FFF756FEFF20B2
:1040C000FFF753FE04460121004839E0001001408B
:1040D00000080140003001403C3C2D464C41534813
:1040E0002D4552524F522D3E3E2053504920B5C8C7
:1040F000B4FDB3ACCAB1216572726F72436F64656F
:10410000203D2025640A00004C0000203C3C2D4648
:104110004C4153482D4552524F522D3E3E20535054
:10412000495F464C4153485F5061676557726974F7
:104130006520746F6F206C61726765210A00000052
:10414000FCF711FE204610BD10B50446012132488F
:10415000FCF70BFE0320FFF708FEC4F30740FFF750
:1041600004FEC4F30720FFF700FEE0B2FFF7FDFDF9
:1041700010BD10B5FF20FFF7F8FD10BD10B50446C7
:104180004FF480502549086009E024490868411E21
:10419000224A116018B90220FFF7DFFD10BD02218D
:1041A0001F48FDF7A2F90028EFD021461C48FDF773
:1041B00049F94FF480501949086009E01749086827
:1041C000411E164A116018B90320FFF7C6FDE5E746
:1041D00001211348FDF789F90028EFD01048FDF7B9
:1041E00033F9DBE710B501210B48FCF7BEFDB92020
:1041F000FFF7BBFD01210848FCF7B5FD10BD10B568
:1042000001210548FCF7B1FDAB20FFF7AEFD012110
:104210000148FCF7A8FD10BD001001404C00002033
:10422000003001402DE9F04180460C4610480078EE
:1042300020B9FFF739FD01200D4908702512E6B2BB
:10424000A5F1A101C1EB011202EB411106EB410105
:10425000A1390802C11700EB5171CF100548391878
:1042600020224046FFF7CEFE0020BDE8F08100008E
:10427000680000200030180001B502E00098401EE0
:10428000009000980028F9D108BD08B501216020F0
:10429000FCF778FF03208DF8020018208DF803004A
:1042A0004FF48040ADF800006946FE48FCF7AEFCD4
:1042B0004FF40040ADF800006946FA48FCF7A6FC50
:1042C0000120ADF800006946F648FCF79FFC02208B
:1042D000ADF800006946F348FCF798FC8020ADF883
:1042E00000006946F048FCF791FC4FF48070ADF88F
:1042F00000006946EC48FCF789FC4FF40070ADF80B
:1043000000006946E848FCF781FC4FF48060ADF896
:1043100000006946E448FCF779FC4FF40060ADF812
:1043200000006946E048FCF771FC4FF48050ADF89E
:1043300000006946DC48FCF769FC4FF40050ADF81A
:1043400000006946D848FCF761FC4FF48040ADF8A6
:1043500000006946D448FCF759FC4FF40040ADF822
:1043600000006946D048FCF751FC4FF48070ADF86E
:1043700000006946CB48FCF749FC4FF40070ADF8EB
:1043800000006946C748FCF741FC4FF48060ADF877
:1043900000006946C348FCF739FC03208DF8020091
:1043A00018208DF803001020ADF800006946BD48C4
:1043B000FCF72CFC2020ADF800006946B948FCF75A
:1043C00025FC8020ADF800006946B648FCF71EFCCD
:1043D0004FF40060ADF800006946B248FCF716FCE7
:1043E00010208DF8030003208DF802000220ADF8A4
:1043F00000006946AC48FCF709FC10208DF803006A
:1044000003208DF802004FF48050ADF8000069469B
:10441000A448FCF7FBFB08BD00B597B03C2108A8F9
:1044200005F0F7F81C2101A805F0F3F801210802B6
:10443000FCF79BFE0120019004200390800607906A
:1044400000200290049005900690089009900820A2
:104450000A9010200B9000200C900E900F9010905E
:104460004FF480501190002012901390149001A8E6
:104470001590169008A8FCF7AFF801210020FCF772
:1044800013FA17B000BD10B50024042005F03CFC61
:1044900000BF8648008800BF8448008805F02EFCD5
:1044A00004464FF6FF7000EA042405F027FC04439D
:1044B000D32005F029FC00BF7C48008800BF7B4862
:1044C000008805F01BFC04464FF6FF7000EA042448
:1044D00005F014FC044349F24130844201D12046E6
:1044E00010BD0020FCE710B5FFF7CDFF7049088034
:1044F0000846008849F2413188427CD1CF2005F03E
:1045000003FC002005F004FC812005F001FC3020B4
:1045100005F0FEFBED2005F0F7FB642005F0F8FB4D
:10452000032005F0F5FB122005F0F2FB812005F0D9
:10453000EFFBE82005F0E8FB852005F0E9FB102003
:1045400005F0E6FB782005F0E3FBCB2005F0DCFB73
:10455000392005F0DDFB2C2005F0DAFB002005F00A
:10456000D7FB342005F0D4FB022005F0D1FBF72067
:1045700005F0CAFB202005F0CBFBEA2005F0C4FBC8
:10458000002005F0C5FB002005F0C2FBB12005F0BE
:10459000BBFB002005F0BCFB1B2005F0B9FBB620DF
:1045A00005F0B2FB0A2005F0B3FBA22005F0B0FB3A
:1045B000C02005F0A9FB352005F0AAFBC12005F0BD
:1045C000A3FB112005F0A4FBC52005F09DFB4520B1
:1045D00005F09EFB452005F09BFBC72005F094FBF2
:1045E000A22005F095FBF22005F08EFB002005F0DF
:1045F0008FFB262000E0A1E005F086FB012005F0FE
:1046000087FBE02005F080FB0F2005F081FB2620D2
:1046100005F07EFB242005F07BFB0B2005F078FBEA
:104620000E2005F075FB092005F072FB542005F003
:104630006FFBA82005F06CFB462005F069FB0C2001
:1046400005F066FB172005F063FB092005F060FB11
:104650000F2005F05DFB072005F05AFB002005F058
:1046600057FBE12005F050FB002005F051FB19201D
:1046700005F04EFB1B2005F04BFB042005F048FB2A
:10468000102005F045FB072005F042FB2A2005F02D
:104690003FFB472005F03CFB392005F039FB0320A8
:1046A00008E0000000140140001801400000026012
:1046B0007200002005F02CFB062005F029FB0620E7
:1046C00005F026FB302005F023FB382005F020FB09
:1046D0000F2005F01DFB362005F016FBC82005F065
:1046E00017FB2A2005F010FB002005F011FB00202D
:1046F00005F00EFB002005F00BFBEF2005F008FB9A
:104700002B2005F001FB002005F002FB002005F046
:10471000FFFA012005F0FCFA3F2005F0F9FA3A20F3
:1047200005F0F2FA552005F0F3FA112005F0ECFA45
:10473000FE48FFF7A1FD292005F0E6FA10BD10B5EF
:104740000446072C00DD10BDF9480470204604EB38
:10475000D0714910A4EB410139B9F020F549088026
:104760004FF4A070F449088006E04FF4A070F149BE
:104770000880F020F0490880362005F0C5FAEF489F
:10478000008849F24131884205D1082141EA4410AC
:1047900005F0BEFA0AE0E948008848F25251884222
:1047A00004D1002141EA441005F0B2FA2A2005F0B4
:1047B000ABFA002005F0ACFA002005F0A9FADD49BB
:1047C0000988491EC1F3072005F0A2FAD9490978E2
:1047D000491EC8B205F09CFA2B2005F095FA00207E
:1047E00005F096FA002005F093FAD3490988491E8E
:1047F000C1F3072005F08CFACF490978491EC8B2E9
:1048000005F086FA2C2005F07FFA00BF9BE710B573
:104810000221CB48FCF7A9FA40F6FF20FFF72CFD58
:104820000221C748FCF79FFA40F6FF20FFF724FD5E
:1048300010BD10B504462CB14FF48051C148FCF7AF
:1048400094FA04E04FF48051BE48FCF78CFA10BD96
:1048500010B5FFF71AFDFFF7DFFD0120FFF7E9FFB5
:10486000FFF7D5FFFFF73FFEB1480078FFF767FF7E
:1048700010BD2DE9F04104460D4616461F462A207C
:1048800005F042FA201205F043FAE0B205F040FAD2
:10489000A119491EC1F30F2005F03AFAA119491ECA
:1048A000C8B205F035FA2B2005F02EFA281205F0D3
:1048B0002FFAE8B205F02CFAE919491EC1F30F20CE
:1048C00005F026FAE919491EC8B205F021FABDE83B
:1048D000F08170B504460D4601231A46294620464C
:1048E000FFF7C7FF70BD70B504460D4600262C20AB
:1048F00005F00AFA00BF03E0284605F009FA761C25
:10490000A642F9D370BD2DE9F04106460F46144684
:104910001D462B46224639463046FFF7AAFF04FBC8
:1049200005F089490988FFF7DEFFBDE8F08170B521
:1049300005460C467F48008885420CDA7E48008890
:10494000844208DA21462846FFF7C3FF7F480188E2
:104950000120FFF7C8FF70BD70B5002400252E2090
:1049600005F0D2F900BF7A48008805F0C7F904467F
:1049700005F0C4F9054604F478404FF4FC6101EAFF
:10498000C401084340EAE52070BD70B504460D46F9
:1049900029462046FFF79DFFFFF7DEFF064630461B
:1049A00070BD2DE9FF4F83B081464FF0000AD3461A
:1049B0000598A0EB090504990698461ACDF80490CD
:1049C00004980090002D01DD012705E00DB90027B6
:1049D00002E04FF0FF376D42002E02DD4FF001087C
:1049E00006E016B94FF0000802E04FF0FF387642BB
:1049F000B54201DD2C4600E034460020029019E06B
:104A0000DDE90010FFF793FFAA44B344A24505DD9A
:104A1000AAEB040A0198384480B20190A34505DD51
:104A2000ABEB040B0098404480B200900298401C0D
:104A300080B20290611C02988842E1DD07B0BDE8B7
:104A4000F08F2DE9F04104460D4616461F46DDF86D
:104A50001880B8F1000F0CD03B463246294620465C
:104A6000FFF707FF06FB07F038490988FFF73BFF10
:104A700027E0A019401E82B22B4629462046FFF7A8
:104A800090FFE819401E83B2A019401E82B2E819B7
:104A9000401E81B22046FFF784FFE819401E83B212
:104AA000224629462046FFF77CFFE919491E8BB2B2
:104AB000A119491E8AB2A119491E88B22946FFF7D9
:104AC00070FFBDE8F0812DE9F05F05460E46914686
:104AD0009B4600240FFA89F70320A0EB49000FFA48
:104AE00080FA9CE0BBF1000F55D0A04650E006EBE9
:104AF000080291B22A1990B2FFF719FF06EB0802DB
:104B000091B22A1B90B2FFF712FF321991B2A5EBB6
:104B1000080290B2FFF70BFF321B91B2A5EB08021F
:104B200090B2FFF704FFA6EB080213E0FCBF0200FF
:104B3000700000206C0000206E0000207200002039
:104B400000180140001401407A0000207800002085
:104B50000000026091B22A1B90B2FFF7E8FEA6EBBC
:104B6000080291B22A1990B2FFF7E1FE321B91B20E
:104B700005EB080290B2FFF7DAFE321991B205EBAD
:104B8000080290B2FFF7D3FE08F101000FFA80F897
:104B9000B845ACDD2FE0F21991B22A1990B2FFF7B7
:104BA000C6FEF21991B22A1B90B2FFF7C0FE32196D
:104BB00091B2EA1B90B2FFF7BAFE321B91B2EA1B28
:104BC00090B2FFF7B4FEF21B91B22A1B90B2FFF72E
:104BD000AEFEF21B91B22A1990B2FFF7A8FE321B6B
:104BE00091B2EA1990B2FFF7A2FE321991B2EA1916
:104BF00090B2FFF79CFE601C04B2BAF1000F05DA18
:104C0000A000801D50440FFA80FA07E0E01B8000EE
:104C10000A3050440FFA80FA781E07B200BFBC4237
:104C20007FF760AFBDE8F09F2DE9F05F80468946D1
:104C30001646A6F120001FFA80FAFD490968898806
:104C4000FB4A1268D28801FB02F0C11700EB5171D8
:104C5000C1F3C707F648006800680AFB070BF44871
:104C60000068C388F2480068828849464046FFF7DA
:104C700000FE2C2005F048F8002416E0002510E086
:104C80001BF8040080212941084020B1E948008830
:104C900005F03EF803E0E848008805F039F8681CA4
:104CA000C5B2082DECDB601CC4B2BC42E6DBBDE83B
:104CB000F09F70B504460D46002624E03046DC49DE
:104CC000096889880844DD490988884205DD00268D
:104CD000D7480068C088204484B22046D449096877
:104CE000C9880844D6490988884201DD0026002485
:104CF0002A7821463046FFF797FF6D1CCC480068A4
:104D00008088304486B228780028D7D170BD70B52D
:104D100005460E46144624E02846C5490968898898
:104D20000844C6490988884205DD0025C048006856
:104D3000C088304486B23046BD490968C9880844F5
:104D4000BF490988884201DD0025002622783146C6
:104D50002846FFF769FF641CB5480068808828442E
:104D600085B220780028D7D170BD70B505460E46B3
:104D7000144624E03046AE490968C9880844B04961
:104D80000988884205DD0026A948006880882844F3
:104D900085B22846A649096889880844A749098830
:104DA000884201DD00250026227831462846FFF79B
:104DB0003BFF641C9E480068C088304486B220785F
:104DC0000028D7D170BD2DE9F04389B080468946CF
:104DD000174610231A4649464046FFF74AFD2C2045
:104DE00004F092FF394601A8FFF71CFA002422E0E4
:104DF00001A810F814604FF6FF7000EA06260120A3
:104E000000EB440001A9085C064300250FE04FF4C5
:104E100000402841304020B18648008804F078FFE7
:104E200003E08548008804F073FF681CC5B2102DAC
:104E3000EDDB601CC4B2102CDADB09B0BDE8F083F6
:104E40002DE9F04105460F4614461FE02846103074
:104E50007A490988884203DD002507F1100087B2EE
:104E60003846103076490988884201DD0025002740
:104E70002688300200EB262086B232463946284684
:104E8000FFF7A1FF05F1100085B2A41C20780028CF
:104E9000DCD1BDE8F0812DE9F04105460C46002645
:104EA00048E020787E2825DC3046614909688988F9
:104EB000084462490988884205DD00265C4800688C
:104EC000C088284485B2284659490968C9880844D9
:104ED0005B490988884201DD0026002522782946A1
:104EE0003046FFF7A1FE524800688088304486B201
:104EF000641C1FE03046103050490988884203DDA9
:104F0000002605F1100085B2284610304C4909886A
:104F1000884201DD002600252788380200EB272083
:104F200087B23A4629463046FFF74DFF06F110009A
:104F300086B2A41C20780028B3D1BDE8F0812DE909
:104F4000F04105460E46144648E020787E2825DCD0
:104F500028463749096889880844384909888842B9
:104F600005DD002532480068C088304486B23046EE
:104F70002F490968C988084431490988884201DDF8
:104F800000250026227831462846FFF74DFE2848A6
:104F900000688088284485B2641C1FE028461030D1
:104FA00026490988884203DD002506F1100086B2F3
:104FB0003046103022490988884201DD002500264C
:104FC0002788380200EB272087B23A463146284628
:104FD000FFF7F9FE05F1100085B2A41C2078002827
:104FE000B3D1BDE8F0812DE9F04106460D461446E7
:104FF00036E02846103012490988884203DD002532
:1050000006F1100086B2304610300C4909888842FB
:1050100001DD0026002520787E2813DC2278294631
:105020003046FFF701FE641C05F1100085B217E061
:1050300074000020780000207A0000206C0000201E
:105040006E0000202788380200EB272087B23A46FE
:1050500029463046FFF7B7FE05F1100085B2A41CC3
:1050600020780028C5D1BDE8F0812DE9FC4F0C4621
:105070001E464FEA004A9AFBF2FA0AF1010ACDF8FD
:1050800004A04FEA044A9AFBF6FA0AF1010ACDF8A5
:1050900000A04FF00009202801DBBDE8FC8F00FBD9
:1050A00004FABAF1000F00D1F7E700FB04FABAF5F1
:1050B000806F00DBF1E702FB06FABAF1000F00D1C6
:1050C000EBE702FB06FABAF5804F00DBE5E7EB4BB6
:1050D000DDF834A0BAF1000F2BD100211FE000252C
:1050E00017E0DDF82CA01AF801A04FF0800B4BFA66
:1050F00005FB0AEA0B0ABAF1000F02D04FF0010AD1
:1051000001E04FF0000A03F801AB05F1010A1FFAB4
:105110008AF5082DE5DB01F1010A1FFA8AF104FB8B
:1051200000FA4FEAEA7B0AEB5B7BB1EBEB0FD6DBD5
:105130002AE000211FE0002517E0DDF82CA01AF876
:1051400001A04FF0800B4BFA05FB0AEA0B0ABAF1FB
:10515000000F02D04FF0010A01E04FF0000A03F8FF
:1051600001AB05F1010A1FFA8AF5082DE5DB01F113
:10517000010A1FFA8AF104FB00FA4FEAEA7B0AEB04
:105180005B7BB1EBEB0FD6DBBC4BBD4F4FF0000CA4
:105190001AE04FF0000A4FEA194B00FB0B3ED046D5
:1051A0000AE00EEB1A4B9BF800B007F808B0DDF8E8
:1051B00004B0DA4408F101089045F2D3DDF800B0FC
:1051C000D94417440CF1010CB445E2D3DFF8B0A286
:1051D000CDF830A0DDF830A00AF1010ACDF830A0FA
:1051E00000BF5AE72DE9F05F81468A4614461D4606
:1051F000DDE90A6B0027B8462B4622465146484651
:10520000FFF737FB2C2004F07FFD00BF14E04FF0C8
:1052100000080EE016F8011B594504D19948008892
:1052200004F076FD03E09848008804F071FD08F171
:105230000108A045EED37F1CAF42E8D3BDE8F09F44
:105240002DE9F04F8FB00646884614469946DDE9B1
:10525000185B274669E0304638448C490988884203
:1052600004DD002608EB09001FFA80F84046484498
:1052700087490988884201DD0026B04628788028C1
:1052800025DD2746B5F800A04FEA0A2000EB2A20CA
:105290001FFA80FA514605A8FEF7C4FF012105AAAE
:1052A0000E984B46CDE9002002913A46102108465F
:1052B000FFF7DBFE72484B463A464146CDE9000B0C
:1052C0003046FFF78FFFF01986B2AD1C2DE0204667
:1052D00004EBD071C1F34F0728782038C0B20D908D
:1052E00000236C48C288DDE90D015043694A928869
:1052F0005043C217049000EB5270664A126802EBEA
:10530000E0008DE80B004B463A4618211020FFF7CD
:10531000ACFE5B484B463A464146CDE9000B304671
:10532000FFF760FFF01986B26D1C2878002892D133
:105330000FB0BDE8F08F2DE9F04F8FB080460E46DC
:1053400014461F46DDE9185A0E946BE0304620449F
:105350004E490988884204DD002608EB04001FFA44
:1053600080F8404638444A490988884201DD0026D1
:10537000B0462878802825DD0E94B5F800904FEAD5
:10538000092000EB29201FFA80F9494604A8FEF7FE
:1053900049FF012104AA0D983B46CDE90020029166
:1053A000102108460E9AFFF760FE35483B46CDE9CE
:1053B000000A314640460E9AFFF714FFF01986B2F4
:1053C000AD1C2FE0204604EBD071C1F34F010E91CC
:1053D00028782038C0B20C9000232E48C288DDE91E
:1053E0000C0150432B4A928800FB02FB4FEAEB7002
:1053F0000BEB5070274A126802EBE0008DE80B00BF
:105400003B46182110200E9AFFF72FFE1C483B4602
:10541000CDE9000A314640460E9AFFF7E3FEF01947
:1054200086B26D1C2878002890D10FB0BDE8F08FAF
:10543000194908607047184800687047124A108080
:10544000104A11807047104A128802800D4A128853
:105450000A8070470C49088070470A4908807047E5
:1054600070B50446FFF7E7FFC5882B46074802885A
:1054700021460020FFF747FA70BD0000F0410020F0
:10548000F00100207A000020780000206C0000204D
:105490006E000020580000207400002008B5012193
:1054A0006020FBF76FFE0120ADF800008DF80200D0
:1054B00010208DF803006946F748FBF7A7FB04208E
:1054C000ADF800006946F448FBF7A0FB0820ADF8F2
:1054D000000001208DF8020048208DF80300694685
:1054E000ED48FBF793FB4FF40050ADF800000120AE
:1054F0008DF8020010208DF803006946E748FBF79D
:1055000085FB4FF40051E548FBF72FFC1020ADF868
:10551000000048208DF803006946DF48FBF776FB62
:1055200008BD01B5002007E00C2100BF0A00A1F171
:105530000103D9B2FAD1401C00998842F4D308BDC6
:1055400070B505460421D448FBF70FFC0121D24871
:10555000FBF70BFC00241FE0C4F1070045FA00F044
:1055600000F0010020B10421CB48FBF7FCFB03E075
:105570000421C948FBF7F9FB0520FFF7D2FF012101
:10558000C548FBF7F0FB0520FFF7CBFF0121C24820
:10559000FBF7EBFB601CC4B2082CDDDB70BD70B503
:1055A00000250421BC48FBF7E0FB0121BA48FBF7CA
:1055B000DAFB002414E00121B748FBF7D6FB0821F1
:1055C000B548FBF7B6FB0646C4F10B0006FA00F03F
:1055D000284385B20121B048FBF7C5FB601CC4B26B
:1055E0000C2CE8DB284670BD10B504462046FFF7BA
:1055F000A7FFFFF7D4FF10BD2DE9F04104460D468B
:105600009020FFF7F1FF06B20120FFF78AFFD020BC
:10561000FFF7EAFF07B226802F80BDE8F08130B5A2
:1056200091B004460025242106A803F0F2FF00BF34
:105630000FA910A8FFF7E0FFBDF9400006A921F867
:105640001500BDF93C100DF12A0020F81510681C5A
:10565000C5B210219048FBF76CFB08B9092DE7DBB8
:1056600010218D48FBF765FB10B100208C490870B4
:10567000092D7AD1BDF91800BDF91A100844BDF9F9
:105680001C100844032190FBF1F00390BDF91E00AB
:10569000BDF920100844BDF922100844032190FBF5
:1056A000F1F00490BDF92400BDF926100844BDF9BD
:1056B00028100844032190FBF1F00590DDE9030177
:1056C000401A0090DDE90401401A01900399059801
:1056D000401A02900098002801DD009801E000982F
:1056E000404200900198002801DD019801E00198F6
:1056F000404201900298002801DD029801E00298E2
:10570000404202900098022808DD0198022805DD39
:105710000298022802DD002011B030BDDDE9000151
:10572000884215DA00990298884208DA059A0399A6
:10573000881800EBD071491009B221801EE0DDE924
:105740000312881800EBD071491009B2218015E0CE
:10575000DDE90110884209DA059A0399881800EBFF
:10576000D071491009B2218008E08BE0DDE9041214
:10577000881800EBD071491009B22180BDF92A10B8
:10578000BDF92C000144BDF92E000844032190FB13
:10579000F1F00390BDF93010BDF932000144BDF9BC
:1057A00034000844032190FBF1F00490BDF9361059
:1057B000BDF938000144BDF93A000844032190FBCB
:1057C000F1F00590DDE90301401A0090DDE90401E4
:1057D000401A019003990598401A029000980028F9
:1057E00001DD009801E000984042009001980028F7
:1057F00001DD019801E001984042019002980028E3
:1058000001DD029801E002984042029000980228CF
:1058100007DD0198022804DD0298022801DD00203E
:105820007AE7DDE90001884215DA0099029888429A
:1058300008DA059A0399881800EBD071491009B26B
:1058400061801DE0DDE90312881800EBD07149107A
:1058500009B2618014E0DDE90110884208DA059A96
:105860000399881800EBD071491009B2618007E0F4
:10587000DDE90412881800EBD071491009B261808B
:10588000012049E7012D0DDDBDF818002080BDF88D
:105890002A00608000203FE700180140001401400A
:1058A0003C010020002037E72DE9F04105460C4679
:1058B00016460127B4F90010B4F91020891AB4F97A
:1058C0000A30B4F912209A1A5143B4F90820B4F9F5
:1058D0001030D31AB4F902C0B4F91220ACEB0202B2
:1058E00003FB121004F079F8B0610021B06904F0F4
:1058F000D9F801D10027C3E0B5F90010B5F910209F
:10590000891AB4F90A30B4F912209A1A5143B5F938
:105910000820B5F91030D31AB4F902C0B4F9122036
:10592000ACEB020203FB121004F057F83060B4F93C
:105930000010B4F91020891AB5F90820B5F9103013
:10594000D21A5143B5F90020D21AB4F90830B4F98B
:1059500010C0A3EB0C0302FB131004F03EF87060C0
:10596000B4F91010B5F908205143B4F90820B5F97D
:10597000103002FB1311B4F902205143B4F9002096
:105980005A43B4F91030B5F900C003FB1C23B4F935
:105990000A2003FB0212B4F9081001FB0CF1B4F960
:1059A0000030B5F908C003FB1C13B4F9121003FB57
:1059B000012004F012F8B060B5F90220B5F9121018
:1059C000511AB4F90A30B4F912209A1A5143B5F9B0
:1059D0000A30B5F912209B1AB4F902C0B4F91220AA
:1059E000ACEB020203FB121003F0F7FFF060B4F916
:1059F0000010B4F91020891AB5F90A30B5F912204F
:105A00009A1A5143B5F90230B5F912209A1AB4F92D
:105A10000830B4F910C0A3EB0C0302FB131003F021
:105A2000DCFF3061B4F91010B5F90A205143B4F924
:105A30000830B5F9122003FB1211B4F902205143CA
:105A4000B4F90020B5F912305A43B4F91030B5F961
:105A500002C003FB1C23B4F90A2003FB0213B4F9B0
:105A6000081001FB0CF1B4F900C0B5F90A200CFBD9
:105A70001212B4F9121002FB013003F0AEFF706194
:105A80003846BDE8F08170B504460D4604F10A01C0
:105A90008AB2143988B22B462946FEF782FF05F1F7
:105AA0000A0083B2143881B222462046FEF779FFFD
:105AB00070BD2DE9F04FB9B004464FF00009CA4659
:105AC00000201E901D900026FE48FFF7B1FC00212B
:105AD0001F20FFF7B3FC2046FEF731FEFA4800888E
